{
  "_format": "hh-sol-artifact-1",
  "contractName": "IdentDeFi",
  "sourceName": "contracts/IdentDeFi.sol",
  "abi": [
    {
      "inputs": [],
      "stateMutability": "nonpayable",
      "type": "constructor"
    },
    {
      "anonymous": false,
      "inputs": [
        {
          "indexed": true,
          "internalType": "address",
          "name": "owner",
          "type": "address"
        },
        {
          "indexed": true,
          "internalType": "address",
          "name": "approved",
          "type": "address"
        },
        {
          "indexed": true,
          "internalType": "uint256",
          "name": "tokenId",
          "type": "uint256"
        }
      ],
      "name": "Approval",
      "type": "event"
    },
    {
      "anonymous": false,
      "inputs": [
        {
          "indexed": true,
          "internalType": "address",
          "name": "owner",
          "type": "address"
        },
        {
          "indexed": true,
          "internalType": "address",
          "name": "operator",
          "type": "address"
        },
        {
          "indexed": false,
          "internalType": "bool",
          "name": "approved",
          "type": "bool"
        }
      ],
      "name": "ApprovalForAll",
      "type": "event"
    },
    {
      "anonymous": false,
      "inputs": [
        {
          "indexed": true,
          "internalType": "address",
          "name": "previousOwner",
          "type": "address"
        },
        {
          "indexed": true,
          "internalType": "address",
          "name": "newOwner",
          "type": "address"
        }
      ],
      "name": "OwnershipTransferred",
      "type": "event"
    },
    {
      "anonymous": false,
      "inputs": [
        {
          "indexed": true,
          "internalType": "address",
          "name": "from",
          "type": "address"
        },
        {
          "indexed": true,
          "internalType": "address",
          "name": "to",
          "type": "address"
        },
        {
          "indexed": true,
          "internalType": "uint256",
          "name": "tokenId",
          "type": "uint256"
        }
      ],
      "name": "Transfer",
      "type": "event"
    },
    {
      "inputs": [
        {
          "internalType": "address",
          "name": "to",
          "type": "address"
        },
        {
          "internalType": "uint256",
          "name": "tokenId",
          "type": "uint256"
        }
      ],
      "name": "approve",
      "outputs": [],
      "stateMutability": "nonpayable",
      "type": "function"
    },
    {
      "inputs": [
        {
          "internalType": "address",
          "name": "owner",
          "type": "address"
        }
      ],
      "name": "balanceOf",
      "outputs": [
        {
          "internalType": "uint256",
          "name": "",
          "type": "uint256"
        }
      ],
      "stateMutability": "view",
      "type": "function"
    },
    {
      "inputs": [
        {
          "internalType": "uint256",
          "name": "tokenId",
          "type": "uint256"
        }
      ],
      "name": "getApproved",
      "outputs": [
        {
          "internalType": "address",
          "name": "",
          "type": "address"
        }
      ],
      "stateMutability": "view",
      "type": "function"
    },
    {
      "inputs": [
        {
          "internalType": "address",
          "name": "owner",
          "type": "address"
        },
        {
          "internalType": "address",
          "name": "operator",
          "type": "address"
        }
      ],
      "name": "isApprovedForAll",
      "outputs": [
        {
          "internalType": "bool",
          "name": "",
          "type": "bool"
        }
      ],
      "stateMutability": "view",
      "type": "function"
    },
    {
      "inputs": [],
      "name": "name",
      "outputs": [
        {
          "internalType": "string",
          "name": "",
          "type": "string"
        }
      ],
      "stateMutability": "view",
      "type": "function"
    },
    {
      "inputs": [],
      "name": "owner",
      "outputs": [
        {
          "internalType": "address",
          "name": "",
          "type": "address"
        }
      ],
      "stateMutability": "view",
      "type": "function"
    },
    {
      "inputs": [
        {
          "internalType": "uint256",
          "name": "tokenId",
          "type": "uint256"
        }
      ],
      "name": "ownerOf",
      "outputs": [
        {
          "internalType": "address",
          "name": "",
          "type": "address"
        }
      ],
      "stateMutability": "view",
      "type": "function"
    },
    {
      "inputs": [],
      "name": "renounceOwnership",
      "outputs": [],
      "stateMutability": "nonpayable",
      "type": "function"
    },
    {
      "inputs": [
        {
          "internalType": "address",
          "name": "from",
          "type": "address"
        },
        {
          "internalType": "address",
          "name": "to",
          "type": "address"
        },
        {
          "internalType": "uint256",
          "name": "tokenId",
          "type": "uint256"
        }
      ],
      "name": "safeTransferFrom",
      "outputs": [],
      "stateMutability": "nonpayable",
      "type": "function"
    },
    {
      "inputs": [
        {
          "internalType": "address",
          "name": "from",
          "type": "address"
        },
        {
          "internalType": "address",
          "name": "to",
          "type": "address"
        },
        {
          "internalType": "uint256",
          "name": "tokenId",
          "type": "uint256"
        },
        {
          "internalType": "bytes",
          "name": "_data",
          "type": "bytes"
        }
      ],
      "name": "safeTransferFrom",
      "outputs": [],
      "stateMutability": "nonpayable",
      "type": "function"
    },
    {
      "inputs": [
        {
          "internalType": "address",
          "name": "operator",
          "type": "address"
        },
        {
          "internalType": "bool",
          "name": "approved",
          "type": "bool"
        }
      ],
      "name": "setApprovalForAll",
      "outputs": [],
      "stateMutability": "nonpayable",
      "type": "function"
    },
    {
      "inputs": [
        {
          "internalType": "bytes4",
          "name": "interfaceId",
          "type": "bytes4"
        }
      ],
      "name": "supportsInterface",
      "outputs": [
        {
          "internalType": "bool",
          "name": "",
          "type": "bool"
        }
      ],
      "stateMutability": "pure",
      "type": "function"
    },
    {
      "inputs": [],
      "name": "symbol",
      "outputs": [
        {
          "internalType": "string",
          "name": "",
          "type": "string"
        }
      ],
      "stateMutability": "view",
      "type": "function"
    },
    {
      "inputs": [
        {
          "internalType": "uint256",
          "name": "id",
          "type": "uint256"
        }
      ],
      "name": "tokenOf",
      "outputs": [
        {
          "internalType": "address",
          "name": "",
          "type": "address"
        }
      ],
      "stateMutability": "view",
      "type": "function"
    },
    {
      "inputs": [
        {
          "internalType": "uint256",
          "name": "tokenId",
          "type": "uint256"
        }
      ],
      "name": "tokenURI",
      "outputs": [
        {
          "internalType": "string",
          "name": "",
          "type": "string"
        }
      ],
      "stateMutability": "view",
      "type": "function"
    },
    {
      "inputs": [
        {
          "internalType": "address",
          "name": "from",
          "type": "address"
        },
        {
          "internalType": "address",
          "name": "to",
          "type": "address"
        },
        {
          "internalType": "uint256",
          "name": "tokenId",
          "type": "uint256"
        }
      ],
      "name": "transferFrom",
      "outputs": [],
      "stateMutability": "nonpayable",
      "type": "function"
    },
    {
      "inputs": [
        {
          "internalType": "address",
          "name": "newOwner",
          "type": "address"
        }
      ],
      "name": "transferOwnership",
      "outputs": [],
      "stateMutability": "nonpayable",
      "type": "function"
    }
  ],
  "bytecode": "0x60806040523480156200001157600080fd5b506040518060400160405280600981526020017f4964656e744465466900000000000000000000000000000000000000000000008152506040518060400160405280600381526020017f49444600000000000000000000000000000000000000000000000000000000008152508160009080519060200190620000969291906200018f565b508060019080519060200190620000af9291906200018f565b505050620000c333620000c960201b60201c565b620002a4565b6000600660009054906101000a900473ffffffffffffffffffffffffffffffffffffffff16905081600660006101000a81548173ffffffffffffffffffffffffffffffffffffffff021916908373ffffffffffffffffffffffffffffffffffffffff1602179055508173ffffffffffffffffffffffffffffffffffffffff168173ffffffffffffffffffffffffffffffffffffffff167f8be0079c531659141344cd1fd0a4f28419497f9722a3daafe3b4186f6b6457e060405160405180910390a35050565b8280546200019d906200023f565b90600052602060002090601f016020900481019282620001c157600085556200020d565b82601f10620001dc57805160ff19168380011785556200020d565b828001600101855582156200020d579182015b828111156200020c578251825591602001919060010190620001ef565b5b5090506200021c919062000220565b5090565b5b808211156200023b57600081600090555060010162000221565b5090565b600060028204905060018216806200025857607f821691505b602082108114156200026f576200026e62000275565b5b50919050565b7f4e487b7100000000000000000000000000000000000000000000000000000000600052602260045260246000fd5b61259580620002b46000396000f3fe608060405234801561001057600080fd5b506004361061010b5760003560e01c8063715018a6116100a2578063b88d4fde11610071578063b88d4fde146102a4578063c87b56dd146102c0578063e985e9c5146102f0578063ea78803f14610320578063f2fde38b146103505761010b565b8063715018a6146102425780638da5cb5b1461024c57806395d89b411461026a578063a22cb465146102885761010b565b806323b872dd116100de57806323b872dd146101aa57806342842e0e146101c65780636352211e146101e257806370a08231146102125761010b565b806301ffc9a71461011057806306fdde0314610140578063081812fc1461015e578063095ea7b31461018e575b600080fd5b61012a60048036038101906101259190611865565b61036c565b6040516101379190611f5d565b60405180910390f35b6101486103fe565b6040516101559190611f78565b60405180910390f35b610178600480360381019061017391906118b7565b61048c565b6040516101859190611ef6565b60405180910390f35b6101a860048036038101906101a39190611829565b610511565b005b6101c460048036038101906101bf9190611723565b61061b565b005b6101e060048036038101906101db9190611723565b610674565b005b6101fc60048036038101906101f791906118b7565b610694565b6040516102099190611ef6565b60405180910390f35b61022c600480360381019061022791906116be565b610746565b604051610239919061215a565b60405180910390f35b61024a6107fe565b005b61025461089a565b6040516102619190611ef6565b60405180910390f35b6102726108c0565b60405161027f9190611f78565b60405180910390f35b6102a2600480360381019061029d91906117ed565b61094e565b005b6102be60048036038101906102b99190611772565b61095d565b005b6102da60048036038101906102d591906118b7565b6109b8565b6040516102e79190611f78565b60405180910390f35b61030a600480360381019061030591906116e7565b610a5f565b6040516103179190611f5d565b60405180910390f35b61033a600480360381019061033591906118b7565b610af3565b6040516103479190611ef6565b60405180910390f35b61036a600480360381019061036591906116be565b610b30565b005b60006301ffc9a760e01b827bffffffffffffffffffffffffffffffffffffffffffffffffffffffff191614806103c757506380ac58cd60e01b827bffffffffffffffffffffffffffffffffffffffffffffffffffffffff1916145b806103f75750635b5e139f60e01b827bffffffffffffffffffffffffffffffffffffffffffffffffffffffff1916145b9050919050565b6000805461040b9061238a565b80601f01602080910402602001604051908101604052809291908181526020018280546104379061238a565b80156104845780601f1061045957610100808354040283529160200191610484565b820191906000526020600020905b81548152906001019060200180831161046757829003601f168201915b505050505081565b600061049782610c3c565b6104d6576040517f08c379a00000000000000000000000000000000000000000000000000000000081526004016104cd906120ba565b60405180910390fd5b6004600083815260200190815260200160002060009054906101000a900473ffffffffffffffffffffffffffffffffffffffff169050919050565b600061051c82610694565b90508073ffffffffffffffffffffffffffffffffffffffff168373ffffffffffffffffffffffffffffffffffffffff16141561058d576040517f08c379a00000000000000000000000000000000000000000000000000000000081526004016105849061211a565b60405180910390fd5b8073ffffffffffffffffffffffffffffffffffffffff163373ffffffffffffffffffffffffffffffffffffffff1614806105cd57506105cc8133610a5f565b5b61060c576040517f08c379a00000000000000000000000000000000000000000000000000000000081526004016106039061203a565b60405180910390fd5b6106168383610ca8565b505050565b6106253382610d61565b610664576040517f08c379a000000000000000000000000000000000000000000000000000000000815260040161065b9061213a565b60405180910390fd5b61066f838383610e3f565b505050565b61068f8383836040518060200160405280600081525061095d565b505050565b6000806002600084815260200190815260200160002060009054906101000a900473ffffffffffffffffffffffffffffffffffffffff169050600073ffffffffffffffffffffffffffffffffffffffff168173ffffffffffffffffffffffffffffffffffffffff16141561073d576040517f08c379a00000000000000000000000000000000000000000000000000000000081526004016107349061207a565b60405180910390fd5b80915050919050565b60008073ffffffffffffffffffffffffffffffffffffffff168273ffffffffffffffffffffffffffffffffffffffff1614156107b7576040517f08c379a00000000000000000000000000000000000000000000000000000000081526004016107ae9061205a565b60405180910390fd5b600360008373ffffffffffffffffffffffffffffffffffffffff1673ffffffffffffffffffffffffffffffffffffffff168152602001908152602001600020549050919050565b3373ffffffffffffffffffffffffffffffffffffffff16600660009054906101000a900473ffffffffffffffffffffffffffffffffffffffff1673ffffffffffffffffffffffffffffffffffffffff161461088e576040517f08c379a0000000000000000000000000000000000000000000000000000000008152600401610885906120da565b60405180910390fd5b6108986000611090565b565b600660009054906101000a900473ffffffffffffffffffffffffffffffffffffffff1681565b600180546108cd9061238a565b80601f01602080910402602001604051908101604052809291908181526020018280546108f99061238a565b80156109465780601f1061091b57610100808354040283529160200191610946565b820191906000526020600020905b81548152906001019060200180831161092957829003601f168201915b505050505081565b610959338383611156565b5050565b6109673383610d61565b6109a6576040517f08c379a000000000000000000000000000000000000000000000000000000000815260040161099d9061213a565b60405180910390fd5b6109b2848484846112c3565b50505050565b60606109c382610c3c565b610a02576040517f08c379a00000000000000000000000000000000000000000000000000000000081526004016109f9906120fa565b60405180910390fd5b6000610a0c611429565b90506000815111610a2c5760405180602001604052806000815250610a57565b80610a3684611440565b604051602001610a47929190611ed2565b6040516020818303038152906040525b915050919050565b6000600560008473ffffffffffffffffffffffffffffffffffffffff1673ffffffffffffffffffffffffffffffffffffffff16815260200190815260200160002060008373ffffffffffffffffffffffffffffffffffffffff1673ffffffffffffffffffffffffffffffffffffffff16815260200190815260200160002060009054906101000a900460ff16905092915050565b60006007600083815260200190815260200160002060009054906101000a900473ffffffffffffffffffffffffffffffffffffffff169050919050565b3373ffffffffffffffffffffffffffffffffffffffff16600660009054906101000a900473ffffffffffffffffffffffffffffffffffffffff1673ffffffffffffffffffffffffffffffffffffffff1614610bc0576040517f08c379a0000000000000000000000000000000000000000000000000000000008152600401610bb7906120da565b60405180910390fd5b600073ffffffffffffffffffffffffffffffffffffffff168173ffffffffffffffffffffffffffffffffffffffff161415610c30576040517f08c379a0000000000000000000000000000000000000000000000000000000008152600401610c2790611f9a565b60405180910390fd5b610c3981611090565b50565b60008073ffffffffffffffffffffffffffffffffffffffff166002600084815260200190815260200160002060009054906101000a900473ffffffffffffffffffffffffffffffffffffffff1673ffffffffffffffffffffffffffffffffffffffff1614159050919050565b816004600083815260200190815260200160002060006101000a81548173ffffffffffffffffffffffffffffffffffffffff021916908373ffffffffffffffffffffffffffffffffffffffff160217905550808273ffffffffffffffffffffffffffffffffffffffff16610d1b83610694565b73ffffffffffffffffffffffffffffffffffffffff167f8c5be1e5ebec7d5bd14f71427d1e84f3dd0314c0f7b2291e5b200ac8c7c3b92560405160405180910390a45050565b6000610d6c82610c3c565b610dab576040517f08c379a0000000000000000000000000000000000000000000000000000000008152600401610da29061201a565b60405180910390fd5b6000610db683610694565b90508073ffffffffffffffffffffffffffffffffffffffff168473ffffffffffffffffffffffffffffffffffffffff161480610e2557508373ffffffffffffffffffffffffffffffffffffffff16610e0d8461048c565b73ffffffffffffffffffffffffffffffffffffffff16145b80610e365750610e358185610a5f565b5b91505092915050565b8273ffffffffffffffffffffffffffffffffffffffff16610e5f82610694565b73ffffffffffffffffffffffffffffffffffffffff1614610eb5576040517f08c379a0000000000000000000000000000000000000000000000000000000008152600401610eac90611fba565b60405180910390fd5b600073ffffffffffffffffffffffffffffffffffffffff168273ffffffffffffffffffffffffffffffffffffffff161415610f25576040517f08c379a0000000000000000000000000000000000000000000000000000000008152600401610f1c90611fda565b60405180910390fd5b610f30600082610ca8565b6001600360008573ffffffffffffffffffffffffffffffffffffffff1673ffffffffffffffffffffffffffffffffffffffff1681526020019081526020016000206000828254610f8091906122a0565b925050819055506001600360008473ffffffffffffffffffffffffffffffffffffffff1673ffffffffffffffffffffffffffffffffffffffff1681526020019081526020016000206000828254610fd79190612219565b92505081905550816002600083815260200190815260200160002060006101000a81548173ffffffffffffffffffffffffffffffffffffffff021916908373ffffffffffffffffffffffffffffffffffffffff160217905550808273ffffffffffffffffffffffffffffffffffffffff168473ffffffffffffffffffffffffffffffffffffffff167fddf252ad1be2c89b69c2b068fc378daa952ba7f163c4a11628f55a4df523b3ef60405160405180910390a4505050565b6000600660009054906101000a900473ffffffffffffffffffffffffffffffffffffffff16905081600660006101000a81548173ffffffffffffffffffffffffffffffffffffffff021916908373ffffffffffffffffffffffffffffffffffffffff1602179055508173ffffffffffffffffffffffffffffffffffffffff168173ffffffffffffffffffffffffffffffffffffffff167f8be0079c531659141344cd1fd0a4f28419497f9722a3daafe3b4186f6b6457e060405160405180910390a35050565b8173ffffffffffffffffffffffffffffffffffffffff168373ffffffffffffffffffffffffffffffffffffffff1614156111c5576040517f08c379a00000000000000000000000000000000000000000000000000000000081526004016111bc90611ffa565b60405180910390fd5b80600560008573ffffffffffffffffffffffffffffffffffffffff1673ffffffffffffffffffffffffffffffffffffffff16815260200190815260200160002060008473ffffffffffffffffffffffffffffffffffffffff1673ffffffffffffffffffffffffffffffffffffffff16815260200190815260200160002060006101000a81548160ff0219169083151502179055508173ffffffffffffffffffffffffffffffffffffffff168373ffffffffffffffffffffffffffffffffffffffff167f17307eab39ab6107e8899845ad3d59bd9653f200f220920489ca2b5937696c31836040516112b69190611f5d565b60405180910390a3505050565b6112ce848484610e3f565b60008373ffffffffffffffffffffffffffffffffffffffff16803b806020016040519081016040528181526000908060200190933c5114806113e4575063150b7a0260e01b7bffffffffffffffffffffffffffffffffffffffffffffffffffffffff19168373ffffffffffffffffffffffffffffffffffffffff1663150b7a02338786866040518563ffffffff1660e01b81526004016113719493929190611f11565b602060405180830381600087803b15801561138b57600080fd5b505af115801561139f573d6000803e3d6000fd5b505050506040513d601f19601f820116820180604052508101906113c3919061188e565b7bffffffffffffffffffffffffffffffffffffffffffffffffffffffff1916145b611423576040517f08c379a000000000000000000000000000000000000000000000000000000000815260040161141a9061209a565b60405180910390fd5b50505050565b606060405180602001604052806000815250905090565b60606000821415611488576040518060400160405280600181526020017f300000000000000000000000000000000000000000000000000000000000000081525090506115e8565b600082905060005b600082146114ba5780806114a3906123bc565b915050600a826114b3919061226f565b9150611490565b60008167ffffffffffffffff8111156114fc577f4e487b7100000000000000000000000000000000000000000000000000000000600052604160045260246000fd5b6040519080825280601f01601f19166020018201604052801561152e5781602001600182028036833780820191505090505b5090505b600085146115e15760018261154791906122a0565b9150600a856115569190612405565b60306115629190612219565b60f81b81838151811061159e577f4e487b7100000000000000000000000000000000000000000000000000000000600052603260045260246000fd5b60200101907effffffffffffffffffffffffffffffffffffffffffffffffffffffffffffff1916908160001a905350600a856115da919061226f565b9450611532565b8093505050505b919050565b60006116006115fb846121a6565b612175565b90508281526020810184848401111561161857600080fd5b611623848285612348565b509392505050565b60008135905061163a81612503565b92915050565b60008135905061164f8161251a565b92915050565b60008135905061166481612531565b92915050565b60008151905061167981612531565b92915050565b600082601f83011261169057600080fd5b81356116a08482602086016115ed565b91505092915050565b6000813590506116b881612548565b92915050565b6000602082840312156116d057600080fd5b60006116de8482850161162b565b91505092915050565b600080604083850312156116fa57600080fd5b60006117088582860161162b565b92505060206117198582860161162b565b9150509250929050565b60008060006060848603121561173857600080fd5b60006117468682870161162b565b93505060206117578682870161162b565b9250506040611768868287016116a9565b9150509250925092565b6000806000806080858703121561178857600080fd5b60006117968782880161162b565b94505060206117a78782880161162b565b93505060406117b8878288016116a9565b925050606085013567ffffffffffffffff8111156117d557600080fd5b6117e18782880161167f565b91505092959194509250565b6000806040838503121561180057600080fd5b600061180e8582860161162b565b925050602061181f85828601611640565b9150509250929050565b6000806040838503121561183c57600080fd5b600061184a8582860161162b565b925050602061185b858286016116a9565b9150509250929050565b60006020828403121561187757600080fd5b600061188584828501611655565b91505092915050565b6000602082840312156118a057600080fd5b60006118ae8482850161166a565b91505092915050565b6000602082840312156118c957600080fd5b60006118d7848285016116a9565b91505092915050565b6118e9816122d4565b82525050565b6118f8816122e6565b82525050565b6000611909826121d6565b61191381856121ec565b9350611923818560208601612357565b61192c816124f2565b840191505092915050565b6000611942826121e1565b61194c81856121fd565b935061195c818560208601612357565b611965816124f2565b840191505092915050565b600061197b826121e1565b611985818561220e565b9350611995818560208601612357565b80840191505092915050565b60006119ae6026836121fd565b91507f4f776e61626c653a206e6577206f776e657220697320746865207a65726f206160008301527f64647265737300000000000000000000000000000000000000000000000000006020830152604082019050919050565b6000611a146025836121fd565b91507f4552433732313a207472616e736665722066726f6d20696e636f72726563742060008301527f6f776e65720000000000000000000000000000000000000000000000000000006020830152604082019050919050565b6000611a7a6024836121fd565b91507f4552433732313a207472616e7366657220746f20746865207a65726f2061646460008301527f72657373000000000000000000000000000000000000000000000000000000006020830152604082019050919050565b6000611ae06019836121fd565b91507f4552433732313a20617070726f766520746f2063616c6c6572000000000000006000830152602082019050919050565b6000611b20602c836121fd565b91507f4552433732313a206f70657261746f7220717565727920666f72206e6f6e657860008301527f697374656e7420746f6b656e00000000000000000000000000000000000000006020830152604082019050919050565b6000611b866038836121fd565b91507f4552433732313a20617070726f76652063616c6c6572206973206e6f74206f7760008301527f6e6572206e6f7220617070726f76656420666f7220616c6c00000000000000006020830152604082019050919050565b6000611bec602a836121fd565b91507f4552433732313a2062616c616e636520717565727920666f7220746865207a6560008301527f726f2061646472657373000000000000000000000000000000000000000000006020830152604082019050919050565b6000611c526029836121fd565b91507f4552433732313a206f776e657220717565727920666f72206e6f6e657869737460008301527f656e7420746f6b656e00000000000000000000000000000000000000000000006020830152604082019050919050565b6000611cb86010836121fd565b91507f554e534146455f524543495049454e54000000000000000000000000000000006000830152602082019050919050565b6000611cf8602c836121fd565b91507f4552433732313a20617070726f76656420717565727920666f72206e6f6e657860008301527f697374656e7420746f6b656e00000000000000000000000000000000000000006020830152604082019050919050565b6000611d5e6020836121fd565b91507f4f776e61626c653a2063616c6c6572206973206e6f7420746865206f776e65726000830152602082019050919050565b6000611d9e602f836121fd565b91507f4552433732314d657461646174613a2055524920717565727920666f72206e6f60008301527f6e6578697374656e7420746f6b656e00000000000000000000000000000000006020830152604082019050919050565b6000611e046021836121fd565b91507f4552433732313a20617070726f76616c20746f2063757272656e74206f776e6560008301527f72000000000000000000000000000000000000000000000000000000000000006020830152604082019050919050565b6000611e6a6031836121fd565b91507f4552433732313a207472616e736665722063616c6c6572206973206e6f74206f60008301527f776e6572206e6f7220617070726f7665640000000000000000000000000000006020830152604082019050919050565b611ecc8161233e565b82525050565b6000611ede8285611970565b9150611eea8284611970565b91508190509392505050565b6000602082019050611f0b60008301846118e0565b92915050565b6000608082019050611f2660008301876118e0565b611f3360208301866118e0565b611f406040830185611ec3565b8181036060830152611f5281846118fe565b905095945050505050565b6000602082019050611f7260008301846118ef565b92915050565b60006020820190508181036000830152611f928184611937565b905092915050565b60006020820190508181036000830152611fb3816119a1565b9050919050565b60006020820190508181036000830152611fd381611a07565b9050919050565b60006020820190508181036000830152611ff381611a6d565b9050919050565b6000602082019050818103600083015261201381611ad3565b9050919050565b6000602082019050818103600083015261203381611b13565b9050919050565b6000602082019050818103600083015261205381611b79565b9050919050565b6000602082019050818103600083015261207381611bdf565b9050919050565b6000602082019050818103600083015261209381611c45565b9050919050565b600060208201905081810360008301526120b381611cab565b9050919050565b600060208201905081810360008301526120d381611ceb565b9050919050565b600060208201905081810360008301526120f381611d51565b9050919050565b6000602082019050818103600083015261211381611d91565b9050919050565b6000602082019050818103600083015261213381611df7565b9050919050565b6000602082019050818103600083015261215381611e5d565b9050919050565b600060208201905061216f6000830184611ec3565b92915050565b6000604051905081810181811067ffffffffffffffff8211171561219c5761219b6124c3565b5b8060405250919050565b600067ffffffffffffffff8211156121c1576121c06124c3565b5b601f19601f8301169050602081019050919050565b600081519050919050565b600081519050919050565b600082825260208201905092915050565b600082825260208201905092915050565b600081905092915050565b60006122248261233e565b915061222f8361233e565b9250827fffffffffffffffffffffffffffffffffffffffffffffffffffffffffffffffff0382111561226457612263612436565b5b828201905092915050565b600061227a8261233e565b91506122858361233e565b92508261229557612294612465565b5b828204905092915050565b60006122ab8261233e565b91506122b68361233e565b9250828210156122c9576122c8612436565b5b828203905092915050565b60006122df8261231e565b9050919050565b60008115159050919050565b60007fffffffff0000000000000000000000000000000000000000000000000000000082169050919050565b600073ffffffffffffffffffffffffffffffffffffffff82169050919050565b6000819050919050565b82818337600083830152505050565b60005b8381101561237557808201518184015260208101905061235a565b83811115612384576000848401525b50505050565b600060028204905060018216806123a257607f821691505b602082108114156123b6576123b5612494565b5b50919050565b60006123c78261233e565b91507fffffffffffffffffffffffffffffffffffffffffffffffffffffffffffffffff8214156123fa576123f9612436565b5b600182019050919050565b60006124108261233e565b915061241b8361233e565b92508261242b5761242a612465565b5b828206905092915050565b7f4e487b7100000000000000000000000000000000000000000000000000000000600052601160045260246000fd5b7f4e487b7100000000000000000000000000000000000000000000000000000000600052601260045260246000fd5b7f4e487b7100000000000000000000000000000000000000000000000000000000600052602260045260246000fd5b7f4e487b7100000000000000000000000000000000000000000000000000000000600052604160045260246000fd5b6000601f19601f8301169050919050565b61250c816122d4565b811461251757600080fd5b50565b612523816122e6565b811461252e57600080fd5b50565b61253a816122f2565b811461254557600080fd5b50565b6125518161233e565b811461255c57600080fd5b5056fea2646970667358221220e21cf4f2217b7964ef6721ea4898000824d1629426601c1a60c473456eb644ed64736f6c63430008000033",
  "linkReferences": {},
  "deployedLinkReferences": {}
}